:100000000C9434000C9449000C9449000C94490061
:100010000C9449000C9449000C9449000C9449003C
:100020000C9449000C9449000C9449000C9449002C
:100030000C9449000C9449000C9449000C9449001C
:100040000C9449000C9449000C9449000C9449000C
:100050000C9449000C9449000C9449000C944900FC
:100060000C9449000C94490011241FBECFEFD8E036
:10007000DEBFCDBF11E0A0E0B1E0E0EFF0E002C0F4
:1000800005900D92A830B107D9F70E944B000C944F
:1000900076000C940000259A249A239A30E220E1FD
:1000A00098E085B1832785B94FEF59E688E1415043
:1000B00050408040E1F700C0000085B1822785B93B
:1000C0004FEF59E688E1415050408040E1F700C0D1
:1000D000000085B1892785B94FEF59E688E1415085
:1000E00050408040E1F700C00000DBCFF894FFCF24
:0800F000201008F401081020A3
:00000001FF
