:100000000C9434000C9449000C9449000C94490061
:100010000C9449000C9449000C9449000C9449003C
:100020000C9449000C9449000C9449000C9449002C
:100030000C9449000C9449000C9449000C9449001C
:100040000C9449000C9449000C9449000C9449000C
:100050000C9449000C9449000C9449000C944900FC
:100060000C9449000C94490011241FBECFEFD8E036
:10007000DEBFCDBF11E0A0E0B1E0EEEEF0E002C0E7
:1000800005900D92A830B107D9F70E944B000C944F
:1000900075000C94000084B190910001892B84B903
:1000A00084B190910101892B84B984B190910201AE
:1000B000892B84B923E031E0E0E0F1E085B1919152
:1000C000892785B94FEF89E698E1415080409040FB
:1000D000E1F700C0000085B1DF0111979C918927ED
:0E00E00085B92E173F0751F7E7CFF894FFCFF1
:0800EE00201008F401081020A5
:00000001FF
